:020000040800F2
:10000000C81E002061010008455B0008475B00082E
:100010004B5B00084F5B0008535B000800000000CA
:10002000000000000000000000000000575B000816
:10003000595B000800000000770100085B5B0008C6
:100040007B0100087B0100087B0100087B010008A0
:100050007B0100087B0100087B0100087B01000890
:100060007B0100087B0100087B0100087B01000880
:100070007B0100087B0100087B0100087B01000870
:100080007B0100087B0100087B0100087B01000860
:100090007B0100085F5B00087B0100087B01000812
:1000A0007B0100087B0100087B0100087B01000840
:1000B0007B0100087B0100087B0100087B01000830
:1000C0007B0100087B0100087B0100087B01000820
:1000D0007B010008735B00087B0100087B010008BE
:1000E0007B0100087B010008675B00087B010008BA
:1000F0007B0100087B0100087B0100087B010008F0
:100100007B0100087B0100087B0100087B010008DF
:100110007B0100087B0100087B0100087B010008CF
:100120007B0100087B0100087B0100087B010008BF
:100130007B0100087B0100087B0100087B010008AF
:100140007B0100087B010008DFF810D007F052FFA8
:1001500000480047F55A0008AFF30080C81E002091
:100160000648804706480047FEE7FEE7FEE7FEE751
:10017000FEE7FEE7FEE7FEE7FEE7FEE7D302000844
:1001800049010008002040F2596172B600BFD94A07
:10019000126902F00202022A03D00A1EA1F1010133
:1001A000F5D1D54A106820F0007040F00070106062
:1001B000D04A106820F4C06040F48060106040F2C3
:1001C000596100BFCB4A126902F002021AB10A1E3D
:1001D000A1F10101F6D140F2596100BFC54A12698F
:1001E00002F00202022A03D00A1EA1F10101F5D198
:1001F00062B67047F0B50024002500270026BF48EE
:10020000006840F48030BD49086000BFBB4800680A
:10021000C0F340467F1C16B9B7F5005FF6D1B7486A
:100220000068C0F340461EB9B548B6490860F0BD45
:10023000FFF7A8FFB448006820F00300B249086047
:100240000846006840F001000860AC484068AB49CF
:1002500048600846406840F40050486008464068DE
:1002600040F4A060486008464068A8490840A34997
:1002700048600846006C20F00300086408464468A3
:1002800044F48034056C44F4003400BF44F420147A
:1002900044600564006840F08070086000BF9748C3
:1002A000006800F000700028F9D09448406820F001
:1002B0000300924948600846406840F003004860E7
:1002C00000BF8E48406800F00C000C28F9D100BF38
:1002D000ADE710B58E48006840F470008C490860A6
:1002E0008648406A40F004008449486208464068F5
:1002F00088490840814948600846006886490840A6
:100300007E4908600846006820F48020086008469E
:10031000406882490840794948604FF4E040C8622B
:10032000401008630020486308647D4888600846E0
:10033000C06940F08050C8616E48006800F4806079
:10034000B0F5806F0CD100BF6B48006820F00070E2
:10035000694908600846006840F00070086000BF06
:100360006948006840F080006749086008460068F6
:1003700020F0100008600846006800F4807020B18A
:100380000846006820F400700860FFF733FF4FF064
:1003900000605F498039086010BD70B50021002001
:1003A000002300240022554D6D6805F00C01534DCB
:1003B0006D6AC5F3021231B104290AD008290CD0A4
:1003C0000C294DD10DE0574D55F822504D4E35605A
:1003D0004CE0554D4B4E356048E0544D494E35602C
:1003E00044E0464D6D68524E05EA0600434D6D6887
:1003F00005F48033414D2D6C05F0020400F00065DA
:100400001DB9022505EB904004E04FF4F875C5EBEB
:100410009045681C73B9394D2D6C05F0010525B167
:10042000424D4543374E356012E03F4D4543354E12
:1004300035600DE0314D6D6805F4003525B1304D66
:100440004543304E356003E0384D45432D4E356011
:10045000022C04D12B4D2D686D082A4E356005E025
:10046000304D55F82250274E356000BF00BF234D58
:100470006D68C5F303152F4E715D224D2D68CD407B
:10048000204E356070BD002040F2596172B600BF49
:10049000184A126902F00202022A03D00A1EA1F1D0
:1004A0000101F5D1144A106820F0007000BF1060FF
:1004B000104A106820F4C06040F4C060106040F240
:1004C000596100BF0B4A126902F002021AB10A1EFA
:1004D000A1F10101F6D140F2596100BF054A12694C
:1004E00002F00202022A03D00A1EA1F10101F5D195
:1004F00062B67047007000402018004000100240B3
:1005000000093D000000002000200240FFFFC0F76E
:1005100088ED00E000C0FFF8FFFFF6FEFFFF0007D8
:100520000080BF049C8000080024F40000127A00C0
:1005300000003C088C80000810B50446B4F5E06F5C
:100540000BD0B4F5C06F08D0B4F5A06F05D0B4F5EA
:10055000806F02D0B4F5407F00D104E06D2262A12B
:100560006EA005F0E5FA784820437849086010BD90
:100570002DE9F0410446002500270F26E07810B150
:10058000E078012800D104E07E2257A170A005F098
:10059000CFFA6078102800DA04E07F2252A17B486D
:1005A00005F0C6FAA078102800DA04E080224EA1F7
:1005B000774805F0BDFAE07800B36448006800F4BD
:1005C000E060C0F5E060050AC5F10407EE40607820
:1005D00000FA07F5A078304005432D016D482278D8
:1005E0008554207800F01F010120884021784911AE
:1005F000890001F1E021C1F8000109E0207800F054
:100600001F010120884064492278521141F82200DC
:10061000BDE8F08170B504460D46B4F1005F02D02C
:10062000B4F1006F00D104E0A7222FA15BA005F078
:100630007FFA6248854200D204E0A8222AA160A085
:1006400005F076FA644905EA010020433F49091F95
:10065000086070BD70B504460D46102C03D0042C04
:1006600001D0022C00D104E0B9221FA15BA005F04B
:100670005FFA0DB1012D00D104E0BA221AA15EA0EB
:1006800005F056FA3DB13148001D006820432F495E
:10069000091D086006E02D48001D0068A0432B4995
:1006A000091D086070BD10B50446042C01D0601D02
:1006B00000B904E0D0220CA156A005F039FA042CB0
:1006C00008D14FF0E020006940F004004FF0E02135
:1006D000086107E04FF0E020006920F004004FF0CF
:1006E000E021086110BD00002E2E5C6669726D77F6
:1006F0006172655C6E33326C3430785F7374645F42
:100700007065726970685F6472697665725C737235
:10071000635C6D6973632E630000000049535F4E94
:100720005649435F5052494F524954595F47524FBF
:100730005550284E5649435F5072696F72697479FB
:1007400047726F75702900000000FA050CED00E09B
:1007500049535F46554E4354494F4E414C5F5354A5
:10076000415445284E5649435F496E69745374722B
:100770007563742D3E4E5649435F4952514368613B
:100780006E6E656C436D642900000000E081000816
:100790009C81000800E400E080E100E049535F4EE6
:1007A0005649435F56454354544142284E564943A7
:1007B0005F5665637454616229000000FFFF0F00FB
:1007C00049535F4E5649435F4F4646534554284F61
:1007D000666673657429000080FFFF1F49535F4EF2
:1007E0005649435F4C50284C6F77506F7765724D78
:1007F0006F6465290000000049535F46554E43541D
:10080000494F4E414C5F535441544528436D642930
:100810000000000049535F5359535449434B5F4311
:100820004C4B5F534F55524345285379735469637A
:100830006B5F434C4B536F7572636529000000007A
:100840000020DB490860091D0860091D0860091DBA
:1008500008606FF07040D64914310860704770B579
:1008600004460025207910B12079042800D104E045
:100870007322D0A1DEA005F05BF96079082805D0CD
:1008800060790C2802D06079102800D104E074222D
:10089000C8A1E2A005F04CF9206800F0704010B942
:1008A000206800B104E07522C2A1E8A005F040F97B
:1008B000A07910B1A079012800D104E07622BDA171
:1008C000EDA005F035F9BA4DA07990B3284600683F
:1008D0002168884329460860081D0068216888430C
:1008E000291D08602079054428682168084328608C
:1008F000AF480830006821688843AD490831086076
:10090000081D006821688843A9490C310860607996
:1009100010280FD1081F006821680843A449083136
:100920000860081D006821680843A1490C3108606F
:100930000EE007E09E4D6079054428682168084371
:10094000286005E0207905442868216888432860EC
:1009500070BD0021016001710C2141710021817184
:10096000704710B5044604F0704008B904B104E0C3
:10097000B52290A1CDA005F0DBF88D4810300068BD
:1009800020438B491031086010BD70B50446002526
:10099000012C46D0022C44D0042C42D0082C40D04C
:1009A000102C3ED0202C3CD0402C3AD0802C38D07B
:1009B000B4F5807F35D0B4F5007F32D0B4F5806FC8
:1009C0002FD0B4F5006F2CD0B4F5805F29D0B4F5EA
:1009D000005F26D0B4F5804F23D0B4F5004F20D06F
:1009E000B4F5803F1DD0B4F5003F1AD0B4F5802F88
:1009F00017D0B4F5002F14D0B4F5801F11D0B4F582
:100A0000001F0ED0B4F5800F0BD0B4F5000F08D046
:100A1000B4F1807F05D0B4F1007F02D0B4F1806FD3
:100A200000D104E0C52263A1A6A005F081F86048CA
:100A300014300068204008B1012500E00025284658
:100A400070BD10B5044604F0704008B904B104E06C
:100A5000DA2258A195A005F06BF8554814300460CF
:100A600010BD70B5044600250026012C46D0022C8E
:100A700044D0042C42D0082C40D0102C3ED0202C46
:100A80003CD0402C3AD0802C38D0B4F5807F35D083
:100A9000B4F5007F32D0B4F5806F2FD0B4F5006F7D
:100AA0002CD0B4F5805F29D0B4F5005F26D0B4F522
:100AB000804F23D0B4F5004F20D0B4F5803F1DD037
:100AC000B4F5003F1AD0B4F5802F17D0B4F5002F3D
:100AD00014D0B4F5801F11D0B4F5001F0ED0B4F5BA
:100AE000800F0BD0B4F5000F08D0B4F1807F05D093
:100AF000B4F1007F02D0B4F1806F00D104E0EB22AA
:100B00002CA170A005F014F82948006800EA04063A
:100B1000274814300068204010B10EB1012500E0D4
:100B20000025284670BD10B5044604F0704008B991
:100B300004B105E040F201121EA15CA004F0F8FF30
:100B40001B481430046010BD10B50446ECB1012CF4
:100B50001BD0022C19D0032C17D0042C15D0052C37
:100B600013D0062C11D0072C0FD0082C0DD0092C37
:100B70000BD00A2C09D00B2C07D00C2C05D00D2C37
:100B800003D00E2C01D00F2C00D105E04FF487725A
:100B900008A153A004F0CCFF0548183000680020DD
:100BA000034918310860084600682043086010BDFA
:100BB000000401402E2E5C6669726D776172655C7F
:100BC0006E33326C3430785F7374645F7065726951
:100BD00070685F6472697665725C7372635C6E33B1
:100BE000326C3430785F657874692E6300000000E1
:100BF00049535F455854495F4D4F44452845585423
:100C0000495F496E69745374727563742D3E45581B
:100C100054495F4D6F6465290000000049535F45EA
:100C20005854495F545249474745522845585449FA
:100C30005F496E69745374727563742D3E455854E0
:100C4000495F5472696767657229000049535F45BF
:100C50005854495F4C494E4528455854495F496EA0
:100C600069745374727563742D3E455854495F4CD2
:100C7000696E65290000000049535F46554E435494
:100C8000494F4E414C5F53544154452845585449AF
:100C90005F496E69745374727563742D3E45585480
:100CA000495F4C696E65436D6429000049535F4597
:100CB0005854495F4C494E4528455854495F4C6942
:100CC0006E65290049535F4745545F455854495F55
:100CD0004C494E4528455854495F4C696E6529007A
:100CE00049535F455854495F545353454C5F4C49F1
:100CF0004E4528455854495F545353454C5F4C6901
:100D00006E65290070B5044600252CB1012C03D076
:100D1000022C01D0032C00D104E09A22E9A1F8A012
:100D200004F006FFFE48056805F0F8052543056058
:100D300070BD10B50446102C00D004B904E0B222F6
:100D4000E0A1F8A004F0F4FEF548006820F01000DF
:100D5000F3490860084600682043086010BDF04869
:100D6000006840F04000EE490860704710B5044646
:100D7000802C00D004B904E0CE22D2A1F5A004F06A
:100D8000D7FEE748006820F08000E5490860084683
:100D900000682043086010BD10B50446B4F5007F1C
:100DA00000D004B904E0E022C6A1F3A004F0C0FE24
:100DB000DB48006820F40070D949086008460068E4
:100DC0002043086010BD0020D549096801F48071F6
:100DD00009B1012000E00020704710B50446B4F5C9
:100DE000006F00D004B905E040F20712B5A1E8A0F9
:100DF00004F09EFECA48006820F40060C8490860FC
:100E0000084600682043086010BD0020C4490968F6
:100E100001F4806109B1012000E00020704710B5A5
:100E2000044614B1B4F5807F00D105E040F22B12E6
:100E3000A4A1DDA004F07CFEB948006943F6FF617F
:100E40000840B7490861084600692043086110BDA1
:100E500008B50021002200920020DC4A126802F04E
:100E60000202C2B9D94A126842F00102D74B1A6095
:100E700000BFD64A1268C2F34001009A521C009289
:100E800019B9009AB2F5A06FF3D1D04A1268C2F333
:100E9000400101B9012008BDCD48A1494860CD48B5
:100EA000486070479E48006940F080009C49086196
:100EB000704706209A49C96801F0010109B1012073
:100EC0001CE09749C96801F0040109B1032015E04D
:100ED0009349C96801F0080109B104200EE0904966
:100EE000C96801F0100109B1052007E08C49C96803
:100EF00001F0400109B1072000E00620704700B56D
:100F000002460623FFF7D5FF034603E0FFF7D1FFB4
:100F10000346521E012B01D1002AF7D102B90A2340
:100F2000184600BD10B5044624F07C0008B904B191
:100F300005E040F2B75263A1A7A004F0F9FD78489C
:100F4000C06820437649C86010BD70B504460625C8
:100F5000B4F1006F03D3A848844200D205E040F208
:100F6000791258A1A5A004F0E3FDB4F1006F03D3FA
:100F7000A148401C844202D30925284670BD7C202C
:100F8000FFF7D0FF4FF43020FFF7B9FF0546062DDD
:100F900017D16348006940F00200614908610846C2
:100FA0004461006940F0400008614FF43020FFF7D1
:100FB000A6FF05465A48006943F6FD7108405849A6
:100FC00008612846DAE710B506247C20FFF7AAFF5F
:100FD0004FF43020FFF793FF0446062C16D15048FB
:100FE000006940F004004E4908610846006940F07D
:100FF000400008614FF43020FFF781FF0446484865
:10100000006943F6FB71084045490861204610BD60
:1010100000204349C96901F0020109B1012000E043
:101020000020704700203E49C96901F0004109B124
:10103000012000E00020704770B5784D0624FFF7CE
:10104000F1FF10B10824204670BDFFF7E1FF08B1A1
:101050004FF47F057C20FFF765FF4FF43020FFF74A
:101060004EFF0446062C2BD159482D49886059481B
:1010700088600846006940F0200008610846006961
:1010800040F0400008614FF43020FFF738FF04467D
:10109000062C16D17C20FFF745FF2148006943F656
:1010A000DF7108401E4908610846006940F01000E1
:1010B00008615B4805604FF40050FFF720FFB1E086
:1010C000BAE0BAE02E2E5C6669726D776172655C7B
:1010D0006E33326C3430785F7374645F706572693C
:1010E00070685F6472697665725C7372635C6E339C
:1010F000326C3430785F666C6173682E6300000078
:1011000049535F464C4153485F4C4154454E435907
:1011100028464C4153485F4C6174656E63792900E1
:101120000020024049535F464C4153485F505245AE
:1011300046455443484255465F535441544528461A
:101140004C4153485F5072656665746368427566CA
:101150002900000049535F464C4153485F494341D1
:101160004348455F535441544528464C4153485FDA
:10117000694361636865290049535F464C415348A0
:101180005F4C564D28464C4153485F4C564D290004
:1011900049535F464C4153485F534C4D28464C41A0
:1011A00053485F534C4D290049535F464C415348C7
:1011B0005F534D5053454C5F535441544528464C62
:1011C0004153485F736D7073656C290000100240D5
:1011D00023016745AB89EFCD49535F464C415348E6
:1011E0005F434C4541525F464C414728464C415372
:1011F000485F464C41472900FFFF010849535F46BD
:101200004C4153485F414444524553532850616711
:10121000655F41646472657373290000A500FFFF78
:1012200000F8FF1F04460A2C10D0FE48006943F660
:10123000EF710840FB49086108E00A2C06D0F94824
:10124000006943F6DF710840F64908612046FBE675
:101250002DE9F04F85B00746884691469A46DDE96C
:10126000106B159C06250FB1A52F00D106E040F2AA
:101270004F22AFF2B011ECA004F05AFCB8F1010F0C
:1012800002D0B8F1000F00D106E04FF41472AFF2B3
:10129000CC11ECA004F04CFCB9F1020F02D0B9F172
:1012A000000F00D106E040F25122AFF2E811ECA0AD
:1012B00004F03EFCBAF1040F02D0BAF1000F00D1E5
:1012C00006E040F25222AFF20421EDA004F030FC1F
:1012D000BBF1330F02D0BBF1000F00D106E04FF499
:1012E0001572AFF22021EEA004F022FC1298012822
:1012F00001D0129800B906E040F25522AFF23C212D
:10130000EEA004F015FC1398022801D0139800B940
:1013100006E040F25622AFF25421F1A004F008FC9E
:101320001498042801D0149800B906E040F257221E
:10133000AFF27021F3A004F0FBFB6CB1102C0BD0CA
:10134000202C09D0302C07D0402C05D0502C03D0B5
:10135000602C01D0702C00D106E04FF41672AFF271
:101360009C21F2A004F0E4FBFFF75CFE20B108250D
:10137000284605B0BDE8F08FF64348EA090040EA88
:101380000A0047EA00400490DDE90E0140EA01400E
:101390000390F0B24FF47F0101EA06210843029066
:1013A0004FF47F0000EA1620C6F30741084301907E
:1013B000DDE9120108431499084320434BEA004039
:1013C0000090E34897498860E24888607C20FFF7F6
:1013D000A9FD4FF43020FFF792FD0546062D73D18D
:1013E0009048006940F020008E4908610846006975
:1013F00040F0400008614FF43020FFF780FD0546C3
:10140000062D58D17C20FFF78DFD8648006943F6F4
:10141000DF710840834908610846006940F0100008
:101420000861CD49049808604FF40050FFF767FD4C
:101430000546062D35D17C20FFF774FDC649091DF0
:10144000039808604FF40050FFF759FD0546062D3C
:1014500027D17C20FFF766FDBF490831029808605C
:101460004FF40050FFF74BFD0546062D19D17C20A7
:10147000FFF758FDB8490C31019808604FF400504F
:10148000FFF73DFD0546062D0BD17C20FFF74AFDF9
:10149000B1491031009808604FF40050FFF72FFD5C
:1014A00005460A2D10D05F48006943F6EF710840E9
:1014B0005C49086108E00A2D06D05A48006943F6E5
:1014C000DF71084057490861284652E770B5044665
:1014D0000D460626B4F1006F03D3A048844200D223
:1014E00006E040F2DB22AFF224419DA004F020FB95
:1014F00004F0030010B10926304670BD7C20FFF7D0
:1015000011FD4FF40050FFF7FAFC0646062E12D1EB
:101510004448006940F001004249086125604FF4E9
:101520000050FFF7ECFC06463E48006943F6FE71AA
:1015300008403C4908613046DFE770B504460E4676
:1015400006258548001D844200D106E04FF4427212
:10155000AFF2904189A004F0EBFAFFF763FD10B100
:101560000825284670BD7C20FFF7DCFC4FF40050B6
:10157000FFF7C5FC0546062D18D175482949886036
:10158000744888600846006940F0100008612660D1
:101590004FF40050FFF7B3FC05460A2D06D0214852
:1015A000006943F6EF7108401E4908612846D9E7F3
:1015B0002DE9F04704464FF6FF763746B046B14670
:1015C0000625FFF72FFD18B108252846BDE8F0874E
:1015D000E443E6B2C4F30727C4F307484FEA1469AB
:1015E0007C20FFF79FFC4FF40050FFF788FC054676
:1015F000062D15D156480B49886056488860084624
:10160000006940F010000861FF2E01D1FF2F08D0C3
:1016100046EA07405049083108604FF40050BBE0EB
:10162000D7E0BCE00020024049535F4F425F524484
:1016300050315F534F55524345284F425F524450FB
:101640003129000049535F4F425F495744475F5378
:101650004F55524345284F425F49574447290000A0
:1016600049535F4F425F53544F50325F534F55526F
:101670004345284F425F53544F5032290000000029
:1016800049535F4F425F53544442595F534F555241
:101690004345284F425F53544442592900000000FB
:1016A00049535F4F425F524450325F534F5552434C
:1016B00045284F425F5244503229000049535F4F42
:1016C00042325F4E424F4F54305F534F5552434565
:1016D000284F42325F6E424F4F54302900000000C5
:1016E00049535F4F42325F4E424F4F54315F534F29
:1016F00055524345284F42325F6E424F4F54312975
:101700000000000049535F4F42325F4E5357424F33
:101710004F54305F534F55524345284F42325F6E0E
:101720005357424F4F5430290000000049535F4F38
:1017300042325F424F525F4C45565F534F555243C2
:1017400045284F42325F424F525F4C4556290000B8
:1017500023016745AB89EFCD00F8FF1FFFFF0108AC
:1017600049535F464C4153485F41444452455353AB
:1017700028416464726573732900000049535F4F08
:10178000425F444154415F414444524553532841D0
:101790006464726573732900FFF7B1FB0546B8F105
:1017A000FF0F02D1B9F1FF0F0AD0062D08D148EA88
:1017B0000940FE4908604FF40050FFF7A0FB0546C2
:1017C0000A2D06D0FA48006943F6EF710840F8493F
:1017D00008612846FAE670B505460624F448C06953
:1017E00000F01C0086030DB1012D00D106E040F28F
:1017F0008532AFF23071EFA004F09AF9FFF712FCD6
:1018000010B10824204670BD7C20FFF78BFB4FF4FD
:101810003020FFF774FB0446062C48D1EC48E4491D
:101820008860EC4888600846006940F02000086144
:101830000846006940F0400008614FF43020FFF78F
:101840005EFB0446062C29D17C20FFF76BFBD848B1
:10185000006943F6DF710840D54908610846006910
:1018600040F0100008612DB106F47F00CF490C391B
:10187000086004E046F0A500CC490C3908604FF43C
:101880003020FFF73CFB04460A2C10D0C848006902
:1018900043F6EF710840C649086108E00A2C06D0FB
:1018A000C348006943F6DF710840C149086120461A
:1018B000A9E770B50624BE48C06900F01C00850386
:1018C000FFF7A6FB08B945F0A505FFF7ABFB10B184
:1018D0000824204670BD7C20FFF724FB4FF4302005
:1018E000FFF70DFB0446062C4DD1B948B04988607E
:1018F000B84888600846006940F020000861084642
:10190000006940F0400008614FF43020FFF7F7FA1B
:101910000446062C2ED17C20FFF704FBA448006966
:1019200043F6DF710840A24908610846006940F0AB
:10193000100008619D480C3805604FF43020FFF717
:10194000DEFA0446062C0BD17C20FFF7EBFAA24806
:101950009649091D08604FF43020FFF7D0FA04467D
:101960000A2C10D09248006943F6EF710840904964
:10197000086108E00A2C06D08D48006943F6DF7143
:1019800008408B4908612046A4E72DE9F04105464F
:101990000E461746DFF844820624012D00D005B913
:1019A00007E040F23442AFF6E401AFF2683004F0F1
:1019B000BFF8022E00D006B907E040F23542AFF67C
:1019C000FC01AFF2643004F0B3F8042F00D007B983
:1019D00007E040F23642AFF61411AFF25C3004F08B
:1019E000A7F8FFF71FFB18B108242046BDE8F081D7
:1019F000FFF70EFB18B1DFF8E481A8F1A5087448E1
:101A00006B498860734888607C20FFF78BFA4FF43D
:101A10003020FFF774FA0446062C40D16448006970
:101A200040F02000624908610846006940F040002B
:101A300008614FF43020FFF762FA0446062C25D1E6
:101A40007C20FFF76FFA5A48006943F6DF710840BF
:101A5000574908610846006940F01000086145EAEE
:101A60000600384348EA004050490C3908604FF4FA
:101A70000050FFF744FA04460A2C10D04C48006985
:101A800043F6EF7108404A49086108E00A2C06D085
:101A90004748006943F6DF71084045490861204620
:101AA000A4E72DE9F04706460F4690461C46DFF8AE
:101AB00030916FF47F0A0625012E00D006B907E0A9
:101AC00040F2A142AFF60421AFF2104004F030F82A
:101AD000022F00D007B907E040F2A242AFF61C2166
:101AE000AFF2044004F024F8B8F1040F02D0B8F1CA
:101AF000000F00D107E040F2A342AFF63821AFF269
:101B0000FC3004F015F86CB1102C0BD0202C09D04F
:101B1000302C07D0402C05D0502C03D0602C01D0A5
:101B2000702C00D107E040F2A442AFF66821AFF27A
:101B3000044003F0FDFFFFF775FA18B108252846A9
:101B4000BDE8F087FFF764FA18B1DFF89490A9F1C7
:101B5000A5091F48164988601E4888607C20FFF749
:101B6000E1F94FF43020FFF7CAF90546062D6CD194
:101B70000F48006940F020000D49086108460069DF
:101B800040F0400008614FF43020FFF7B8F90546F7
:101B9000062D51D17C20FFF7C5F90548006943F6B1
:101BA000DF7108400249086108461BE00CF8FF1F7E
:101BB0000020024049535F46554E4354494F4E4121
:101BC0004C5F535441544528436D64290000000084
:101BD00023016745AB89EFCDCC33FFFFA500F0FFB4
:101BE000A500FFFF006940F0100008615048C0F8F0
:101BF00000904FF40050FFF782F90546062D11D1F1
:101C00007C20FFF78FF946EA070040EA08002043EE
:101C10004AEA00404649103108604FF40050FFF78F
:101C20006EF905460A2D10D04248006943F6EF715F
:101C300008404049086108E00A2D06D03D48006987
:101C400043F6DF7108403B490861284678E7394888
:101C5000C069800870473748006A704700203549DE
:101C6000096801F0200109B1012000E0002070475F
:101C700000203049096943F6FF62114009B1012093
:101C800000E00020704770B504460D4624F4E05093
:101C900008B904B106E040F26B52AFF6D83126A085
:101CA00003F046FF0DB1012D00D107E040F26C5268
:101CB000AFF6F031AFF2041003F03AFF2DB11D483A
:101CC000006920431B49086104E01A480069A043E9
:101CD0001849086170BD70B504460025012C0BD071
:101CE000042C09D0082C07D0102C05D0202C03D0B0
:101CF000402C01D0012C00D106E040F28D52AFF60D
:101D00003C4113A003F014FF012C08D10948C0691D
:101D100000F0010008B1012508E0002506E00548B3
:101D2000C068204008B1012500E00025284670BDAC
:101D300000F8FF1F0020024049535F464C415348C2
:101D40005F494E5428464C4153485F494E54290040
:101D500049535F464C4153485F4745545F464C41A9
:101D60004728464C4153485F464C414729000000F4
:101D70002DE9F041044600250027A8464FF6FF76DE
:101D8000F248844208D0F248844205D0F1488442A7
:101D900002D0F148844200D104E07D22EFA1FEA0F0
:101DA00003F0C6FEE948844208D1B0B230B14FF624
:101DB000FF7030434FF6FF71884223D0E4488442DD
:101DC00008D1B0B230B14FF6FF7030434FF6FF711B
:101DD000884217D0DF48844208D1B0B230B14FF604
:101DE000FF7030434FF6FF7188420BD0DA488442CF
:101DF00009D1B0B238B14FF6FF7030434FF6FF71E2
:101E0000884200D104E07F22D4A1EAA003F090FE32
:101E1000CE48844208D10121042002F037FC002181
:101E2000042002F033FC25E0C948844208D1012196
:101E3000082002F02BFC0021082002F027FC19E00A
:101E4000C448844208D10121102002F01FFC002167
:101E5000102002F01BFC0DE0BF48844208D1012194
:101E6000202002F013FC0021202002F00FFC01E0F2
:101E7000BDE8F0816BE00120A84000EA0607002FD2
:101E800064D0D648A90850F82180A807010F0F2078
:101E9000884000EA0808AD48844201D100200AE0E9
:101EA000AB48844201D1012005E0AA48844201D117
:101EB000022000E00320A907090F8840404522D1F5
:101EC000C7480068B843C6490860081D0068B843A1
:101ED000091D0860081D0068B843091D0860081D39
:101EE0000068B843091D0860A807010F0F2000FA19
:101EF00001F8BA48A90850F8210020EA0800B749BB
:101F0000AA0841F8220020686A0003219140884312
:101F1000206005F0080038B1606A6907CA0E0F2119
:101F200091400843606206E0206A6907CA0E0F21EB
:101F300091400843206260680121A94088436060A5
:101F4000E0686A00032191408843E0606D1C26FA36
:101F500005F000288FD100BF8AE710B5012108469F
:101F600002F094FB0021012002F090FB10BD2DE94E
:101F7000F04706460C464FF000090025A84600270A
:101F8000AA467248864208D07148864205D07148F8
:101F9000864202D07048864200D104E0E4226FA15C
:101FA0007DA003F0C5FDA06830B3A068012823D050
:101FB000A068112820D0A06802281DD0A06812288F
:101FC0001AD08849A068884216D08749A0688842FC
:101FD00012D08649A06888420ED08549A068884200
:101FE0000AD08449A068884206D08349A068884204
:101FF00002D0A068032800D104E0E52257A17FA009
:1020000003F096FD002010B9208800B104E0E6221C
:1020100052A185A003F08CFD207928B120790128F8
:1020200002D02079022800D104E0E7224BA187A04A
:1020300003F07EFDE07810B1E078012800D104E0E3
:10204000E82246A18CA003F073FD70E220880121F4
:10205000B94000EA010ABAF1000F73D04FEA47090C
:10206000A068022807D0A068122804D0A06810B188
:10207000A068032867D1E068002865D0E0680128DF
:10208000FBD0E0680028F8D0E0680128F5D0E068CF
:102090000028F2D0E0680128EFD0E0680028ECD0FA
:1020A000E068012850D0E06800284DD0E0680128A1
:1020B0004AD0E068002847D0E068012844D0E068B2
:1020C000002841D0E06801283ED0E06800283BD0DD
:1020D000E068012838D0E068032835D0E06802289D
:1020E00032D0E06805282FD0E06802282CD0E068C4
:1020F000052829D0E068022826D0E068052823D0EA
:10210000E068022820D0E06805281DD0E068022899
:102110001AD0E068052817D0E068022814D0E068DB
:10212000052811D0E06804280ED0E06805280BD0FF
:10213000E068042808D0E068052805D0E068042895
:1021400002D0B3E0ECE12EE10AE10000000801401A
:10215000000C014000100140001401402E2E5C666E
:1021600069726D776172655C6E33326C3430785FA2
:102170007374645F7065726970685F6472697665B4
:10218000725C7372635C6E33326C3430785F67708C
:10219000696F2E630000000049535F4750494F5F4D
:1021A000414C4C5F504552495048284750494F7860
:1021B0002900000049535F4750494F5F50494E5F27
:1021C000415641494C41424C45284750494F782C93
:1021D0004750494F5F50696E2900000004000140DC
:1021E0000004014000001110000021100000311017
:1021F00000001210000022100000321049535F4707
:1022000050494F5F4D4F4445284750494F5F496EF5
:1022100069745374727563742D3E4750494F5F4D16
:102220006F6465290000000049535F4750494F5FC4
:1022300050494E284750494F5F496E697453747234
:102240007563742D3E50696E2900000049535F4745
:1022500050494F5F50554C4C284750494F5F496E8D
:1022600069745374727563742D3E4750494F5F50C3
:10227000756C6C290000000049535F4750494F5F5F
:10228000534C45575F52415445284750494F5F4989
:102290006E69745374727563742D3E4750494F5F75
:1022A000536C65775F52617465290000E068062809
:1022B00056D0E068042853D0E068062850D0E06883
:1022C00004284DD0E06806284AD0E068042847D0AA
:1022D000E068062844D0E068042841D0E068062879
:1022E0003ED0E06807283BD0E068062838D0E06898
:1022F000072835D0E068062832D0E06807282FD0BC
:10230000E06806282CD0E068072829D0E068082873
:1023100026D0E068072823D0E068082820D0E068AD
:1023200007281DD0E06808281AD0E068072817D0D1
:10233000E068092814D0E068072811D0E06809286F
:102340000ED0E06807280BD0E0680A2808D0E068C3
:102350000B2805D0E0680F2802D0E0680F2800D1D4
:1023600005E0F822AFF20C21F8A003F0E1FB07F042
:10237000080060B1756A7807C10E0F208840854358
:102380007907C90EE0688840054375620BE0356A3D
:102390007807C10E0F20884085437907C90EE06891
:1023A000884005433562D6F80080207A00F00F059A
:1023B000032000FA09F028EA000805FA09F040EACB
:1023C0000808C6F80080D6F80C80207900F00305D4
:1023D000032000FA09F028EA000805FA09F040EAAB
:1023E0000808C6F80C80207A00F0030028B3A06823
:1023F000032822D0A07840B1A078022805D0A07888
:10240000012802D0A078032800D106E040F21B1278
:10241000AFF2B821D8A003F08BFBD6F82C80A078BF
:1024200000F00305032000FA09F028EA000805FA85
:1024300009F040EA0808C6F82C80B5680120B840C9
:102440008543E07800F00100B8400543B56020798D
:10245000022805D1B06A0121B9400843B06206E004
:102460002079012803D1B169B8400143B161A06866
:10247000012808D0A068022805D0A068112802D041
:10248000A068122809D175680120B8408543207AD8
:10249000C0F30010B84005437560A06800F080509C
:1024A000F0B3C14805680120B8408543A06800F436
:1024B0008030B0F5803F02D10120B8400543BA48D2
:1024C0000560001D05680120B8408543A06800F440
:1024D0000030B0F5003F02D10120B8400543B248BA
:1024E000001D0560001D05680120B8408543A068F7
:1024F00000F48010B0F5801F02D10120B8400543E0
:10250000A94808300560001D05680120B8408543D2
:10251000A06800F40010B0F5001F04D1012000E015
:1025200004E0B8400543A0480C3005607F1C2088BB
:10253000384100287FF48AADBDE8F0874FF6FF717F
:1025400001800021C17081600F21C16000210171F3
:102550008170704770B505460C4600269348854249
:1025600008D09348854205D09248854202D09248CF
:10257000854200D107E04FF4C472AFF22041AFF2C0
:10258000E83003F0D5FA012C25D0022C23D0042CFE
:1025900021D0082C1FD0102C1DD0202C1BD0402C5B
:1025A00019D0802C17D0B4F5807F14D0B4F5007FFB
:1025B00011D0B4F5806F0ED0B4F5006F0BD0B4F528
:1025C000805F08D0B4F5005F05D0B4F5804F02D02D
:1025D000B4F5004F00D106E040F28912AFF2844119
:1025E00076A003F0A5FA2869204008B1012600E092
:1025F0000026304670BD10B504466C48844208D0B1
:102600006B48844205D06B48844202D06A488442B9
:1026100000D107E04FF4CF72AFF2C041AFF2884073
:1026200003F086FA206980B210BD70B505460C46ED
:1026300000265E48854208D05D48854205D05D4849
:10264000854202D05C48854200D107E04FF4D77242
:10265000AFF2F841AFF2C04003F06AFA012C25D086
:10266000022C23D0042C21D0082C1FD0102C1DD0DC
:10267000202C1BD0402C19D0802C17D0B4F5807F93
:1026800014D0B4F5007F11D0B4F5806F0ED0B4F53E
:10269000006F0BD0B4F5805F08D0B4F5005F05D0B3
:1026A000B4F5804F02D0B4F5004F00D106E040F2FF
:1026B000AF12AFF2585141A003F03AFA68692040D6
:1026C00008B1012600E00026304670BD10B5044672
:1026D0003648844208D03648844205D03548844282
:1026E00002D03548844200D107E04FF4E272AFF2E5
:1026F0009451AFF25C5003F01BFA606980B210BDD8
:1027000070B504460D462948844208D028488442C2
:1027100005D02848844202D02748844200D107E0EF
:102720004FF4E972AFF2CC51AFF2945003F000FADB
:10273000002008B905B106E040F2D312AFF2E4512F
:1027400024A003F0F5F9A56170BD000049535F476F
:1027500050494F5F4146284750494F5F496E697461
:102760005374727563742D3E4750494F5F416C74CA
:1027700065726E617465290049535F4750494F5F28
:1027800043555252454E54284750494F5F496E6950
:10279000745374727563742D3E4750494F5F43758F
:1027A0007272656E74290000000401400008014047
:1027B000000C0140001001400014014049535F47E4
:1027C00045545F4750494F5F50494E2850696E2924
:1027D0000000000049535F4750494F5F50494E2861
:1027E00050696E290000000070B504460D46FE4891
:1027F000844208D0FD48844205D0FD48844202D07E
:10280000FC48844200D107E04FF4ED72AFF2B461AE
:10281000AFF27C6003F08CF9A56170BD70B5044621
:102820000D46F148844208D0F048844205D0F04873
:10283000844202D0EF48844200D107E040F2E9121E
:10284000AFF2E861AFF2B06003F072F9002008B9AE
:1028500005B107E04FF4F572AFF20071AFF28C00F2
:1028600003F066F9A56270BD70B505460C461646C4
:10287000DD48854208D0DD48854205D0DC488542E8
:1028800002D0DC48854200D107E04FF4FE72AFF27F
:102890003471AFF2FC6003F04BF9012C25D0022C0F
:1028A00023D0042C21D0082C1FD0102C1DD0202C7C
:1028B0001BD0402C19D0802C17D0B4F5807F14D0B9
:1028C000B4F5007F11D0B4F5806F0ED0B4F5006F71
:1028D0000BD0B4F5805F08D0B4F5005F05D0B4F537
:1028E000804F02D0B4F5004F00D107E040F2FD1256
:1028F000AFF29871AFF23C1003F01AF90EB1012E4D
:1029000000D106E04FF4FF72AFF2B071BAA003F04D
:102910000FF90EB1AC6100E0AC6270BD70B5044659
:102920000D46B148844208D0B048844205D0B04832
:10293000844202D0AF48844200D107E040F2122224
:10294000AFF2E871AFF2B07003F0F2F8656170BDFC
:1029500070B504460D464FF48036A348844208D033
:10296000A248844205D0A248844202D0A1488442B1
:1029700000D107E040F22222AFF62001AFF2E8706A
:1029800003F0D6F8002008B905B107E040F2232291
:10299000AFF63801AFF2C41003F0CAF82E43E66177
:1029A000E561E661E669E66970BD2DE9F047064636
:1029B0000D4614464FF0000800272EB1012E03D01B
:1029C000022E01D0032E00D106E04FF41072AFF6B4
:1029D000740190A003F0ACF8EDB1012D1BD0022DD5
:1029E00019D0032D17D0042D15D0052D13D0062D89
:1029F00011D0072D0FD0082D0DD0092D0BD00A2D89
:102A000009D00B2D07D00C2D05D00D2D03D00E2D88
:102A100001D00F2D00D106E040F24122AFF6C401F3
:102A200086A003F085F8002C7CD0012C7AD0002CF5
:102A300078D0012C76D0002C74D0012C72D0002CD0
:102A400070D0012C6ED0002C6CD0012C6AD0002CE0
:102A500068D0012C66D0002C64D0012C62D0ECB37D
:102A600060D0032C5ED0022C5CD0052C5AD0022CF6
:102A700058D0052C56D0022C54D0052C52D0022C04
:102A800050D0052C4ED0022C4CD0052C4AD0022C14
:102A900048D0052C46D0042C44D0052C42D0042C20
:102AA00040D0052C3ED0042C3CD0062C3AD0042C2F
:102AB00038D0062C36D0042C34D0062C32D0042C3E
:102AC00030D0062C2ED0042C2CD0062C2AD0072C4B
:102AD00028D0062C26D0072C24D000E022E0062C9B
:102AE00020D0072C1ED0062C1CD0072C1AD0082C66
:102AF00018D0072C16D0082C14D0072C12D0082C74
:102B000010D0072C0ED0092C0CD0072C0AD0092C81
:102B100008D0072C06D00A2C04D00B2C02D00F2C86
:102B200000D000D106E040F24222AFF6D0114BA017
:102B300002F0FEFF0EB92C4808E0012E01D12B480F
:102B400004E0022E01D12A4800E02A48814605F01F
:102B5000080080B105F00708D9F824704FEA880111
:102B60000F20884087434FEA880104FA01F00743A9
:102B7000C9F824700FE005F00708D9F820704FEA73
:102B800088010F20884087434FEA880104FA01F04A
:102B90000743C9F82070BDE8F0872DE9F0410546EC
:102BA0000C460026B0462DB1012D03D0022D01D0D8
:102BB000032D00D106E040F26D22AFF660212FA078
:102BC00002F0B6FF74B1012C7ED0022C7CD0032C15
:102BD0007AD0042C78D0052C76D0062C74D0072C13
:102BE00072D061E070E0000000080140000C01407C
:102BF000001001400014014049535F4750494F5FA6
:102C00004249545F4F5045524154452842697443EC
:102C10006D64290049535F4750494F5F52454D410C
:102C2000505F504F52545F534F5552434528506F99
:102C30007274536F757263652900000049535F47D2
:102C400050494F5F50494E5F534F555243452850AE
:102C5000696E536F757263652900000049535F47C1
:102C600050494F5F414628416C7465726E617465CE
:102C700046756E6374696F6E2900000049535F47A3
:102C800050494F5F4556454E544F55545F504F5233
:102C9000545F534F5552434528506F7274536F75AC
:102CA0007263652900000000082C0DD0092C0BD0A0
:102CB0000A2C09D00B2C07D00C2C05D00D2C03D0DE
:102CC0000E2C01D00F2C00D107E040F26E22AFF69F
:102CD0007431AFF2980002F02BFF0DB99F4808E065
:102CE000012D01D19E4804E0022D01D19D4800E054
:102CF0009D48074604F0080058B104F007087E6AB2
:102D00004FEA88010F208840864346F003067E6222
:102D10000AE004F007083E6A4FEA88010F20884065
:102D2000864346F003063E62BDE8F08110B50446D6
:102D30000CB1012C00D106E04FF42572AFF6E4315E
:102D40008AA002F0F5FE9048C46110BD70B505463A
:102D50000C462E462DB1012D03D0022D01D0032D9E
:102D600000D106E040F2A522AFF6104187A002F0A4
:102D7000DFFEECB1012C1BD0022C19D0032C17D094
:102D8000042C15D0052C13D0062C11D0072C0FD0F5
:102D9000082C0DD0092C0BD00A2C09D00B2C07D0F5
:102DA0000C2C05D00D2C03D00E2C01D00F2C00D1F3
:102DB00007E040F2A622AFF65C41AFF2801002F0CD
:102DC000B7FE7C48A11050F82100A1070A0F03218B
:102DD000914088437749A21041F822000846A1108B
:102DE00050F82100A107090F06FA01F108437149C3
:102DF000A21041F8220070BD70B504460D460026B1
:102E00000B2C01D00A2C00D106E040F2B722AFF61D
:102E1000B44169A002F08CFE0DB1012D00D106E095
:102E20004FF42E72AFF6CC416AA002F081FE6148E9
:102E3000001F06680120A040864305FA04F00643FF
:102E40005C48001F066070BD70B506460C46002544
:102E5000092E01D0082E00D106E040F2CA22AFF6BA
:102E6000045163A002F064FE092E3AD1FCB1012C9A
:102E70001DD0022C1BD0032C19D0042C17D0052CEC
:102E800015D0062C13D0072C11D0082C0FD0092CEC
:102E90000DD00A2C0BD00B2C09D00C2C07D00D2CEC
:102EA00005D00E2C03D00F2C01D0112C00D106E040
:102EB00040F2CE22AFF65C5154A002F039FE3D48FC
:102EC000001F056825F40075112C02D145F400752A
:102ED00003E025F0F00545EA04153648001F0560BB
:102EE0003AE0082E38D1FCB1012C1DD0022C1BD0A9
:102EF000032C19D0042C17D0052C15D0062C13D078
:102F0000072C11D0082C0FD0092C0DD00A2C0BD077
:102F10000B2C09D00C2C07D00D2C05D00E2C03D077
:102F20000F2C01D0102C00D106E040F2E522AFF6C4
:102F3000D4513EA002F0FCFD1E48001F056825F498
:102F40008075102C02D145F4807502E025F00F0544
:102F500025431848001F056070BD000000080140AF
:102F6000000C0140001001400014014049535F462D
:102F7000554E4354494F4E414C5F5354415445289C
:102F8000436D6429000000000000204249535F4760
:102F900050494F5F455854495F504F52545F534F0B
:102FA0005552434528506F7274536F75726365298B
:102FB000000000000400014049535F4146494F5F53
:102FC00053504958284146494F5F535049785F4E06
:102FD0005353290049535F4146494F5F5350495F5E
:102FE0004E5353285370694E73735479706529009A
:102FF00049535F4146494F5F4144435F455452281E
:1030000041444345545254797065290049535F4106
:1030100046494F5F4144435F455452492841444328
:103020005472696752656D617029000049535F41B0
:1030300046494F5F4144435F4554525228414443FF
:103040005472696752656D6170290000FE48406ADC
:1030500040F00400FC49486208464068FB490840CB
:10306000F949486008460068F9490840F64908608F
:103070000846006820F48020086008464068F5494A
:103080000840F14948604FF4E040C86240100863CE
:10309000002048630864F0488860704710B5044613
:1030A0002CB1B4F5803F02D0B4F5802F00D105E0FB
:1030B0004FF49172E9A1F7A002F03AFDE2480068EE
:1030C00020F48030E04908600846006820F4802041
:1030D0000860B4F5803F03D0B4F5802F0ED106E030
:1030E000D948006840F48030D749086007E0D648E6
:1030F000006840F4A020D449086000E000BF00BF91
:1031000010BD2DE9F0410446002500260027212CA2
:103110001FD0312C1DD0392C1BD0412C19D0442C60
:1031200017D05C2C15D05E2C13D0612C11D0632CE1
:103130000FD0772C0DD0792C0BD07A2C09D07B2C8A
:1031400007D07C2C05D07D2C03D07E2C01D07F2C89
:1031500000D105E040F23272C0A1D3A002F0E8FC39
:103160006511012D02D1B848066806E0022D02D192
:10317000B548066A01E0B448466A04F01F0501201C
:10318000A840304008B1012700E000273846BDE8DC
:10319000F08138B5002000900024002500BF3120C8
:1031A000FFF7AFFF05460098401C00900098B0F56F
:1031B000005F01D0002DF2D03120FFF7A2FF08B14F
:1031C000012400E00024204638BD10B504460CB1AF
:1031D000012C00D105E040F26312A0A1B8A002F0DA
:1031E000A7FC9948006820F0010097490860012C6D
:1031F00005D10846006840F00100086000E000BF0B
:1032000000BF10BD38B5002000900024002500BF8D
:103210002120FFF776FF05460098401C009000989B
:10322000B0F5A06F01D0002DF2D02120FFF769FF8B
:1032300008B1012400E00024204638BD70B50446E2
:1032400000251F2C00DC05E04FF4CD7283A1A1A066
:1032500002F06EFC7C48056825F07C0545EA840593
:10326000056070BD10B504460CB1012C00D105E01D
:103270004FF4D67279A1A1A002F05AFCA6480460CE
:1032800010BD70B505460C460DB1042D00D105E00A
:1032900040F2C31271A1A1A002F04AFC5CB1102C53
:1032A00009D0202C07D0302C05D0402C03D0502C36
:1032B00001D0602C00D105E04FF4E27267A19CA020
:1032C00002F036FC6048406A20F070005E494862B7
:1032D0000846406A204348623DB1042D0CD108469F
:1032E000406A40F00400486207E05748406A20F016
:1032F00004005549486200E000BF00BF70BD38B50A
:10330000002000900024002500BF6320FFF7F9FE95
:1033100005460098401C00900098B0F5A06F01D0C1
:10332000002DF2D06320FFF7ECFE08B1012400E08D
:103330000024204638BD01460020434A506A20F44C
:10334000FF0040EAC1305062704710B504460CB12E
:10335000012C00D105E04FF4047240A167A002F0F7
:10336000E7FB7B48046010BD2DE9F04105460C46A3
:1033700016460027B8463DB1012D05D0B5F5803F72
:1033800002D0B5F5403F00D105E040F22B2233A139
:1033900070A002F0CDFB002C54D0B4F5802F51D09A
:1033A000B4F5002F4ED0B4F5402F4BD0B4F5801FAC
:1033B00048D0B4F5A01F45D0B4F5C01F42D0B4F535
:1033C000E01F3FD0B4F5001F3CD0B4F5101F39D03A
:1033D000B4F5201F36D0B4F5301F33D0B4F5401FFC
:1033E00030D0B4F5501F2DD0B4F5601F2AD0B4F101
:1033F000006F27D05F48844224D05F48844221D0A8
:103400005E4884421ED0B4F1016F1BD05C488442F8
:1034100018D05C48844215D05B48844212D0B4F185
:10342000026F0FD0594884420CD05948844209D0C9
:103430005848844206D0B4F1036F03D05648844202
:1034400000D0ABE0B0E000000010024000C0FFF888
:10345000FEFFF6FEFFFF00F70080BF042E2E5C6625
:1034600069726D776172655C6E33326C3430785F8F
:103470007374645F7065726970685F6472697665A1
:10348000725C7372635C6E33326C3430785F72637B
:10349000632E630049535F5243435F4853452852AC
:1034A00043435F485345290049535F5243435F46B6
:1034B0004C4147285243435F464C41472900000096
:1034C00049535F5243435F485349285243435F483F
:1034D0005349290049535F5243435F43414C49429A
:1034E0005F56414C55452848534943616C696272A7
:1034F0006174696F6E56616C7565290049535F464A
:10350000554E4354494F4E414C5F53544154452806
:10351000436D6429000000000000424249535F529D
:1035200043435F4D5349285243435F4D534929005C
:1035300049535F5243435F4D53495F52414E4745A4
:10354000285243435F4D53495F52616E67652900BE
:103550008804424249535F5243435F504C4C5F538F
:103560005243285243435F504C4C536F757263650E
:1035700029000000000004080000080800000C08F2
:10358000000014080000180800001C0800002408AF
:103590000000280800002C0800003408F848844285
:1035A00002D0F848844200D106E04FF40B72AFF22B
:1035B0005411F5A002F0BCFA0EB1022E00D106E0C3
:1035C00040F22D22AFF26C11F6A002F0B1FAFE48E3
:1035D0004768D0F84080FD48074028F003080DB147
:1035E000012D05D1274345EA060040EA080804E01A
:1035F00045EA0400074348EA0608F3484760C0F874
:103600004080BDE8F08110B504460CB1012C00D11A
:1036100007E040F24E22AFF2BC11AFF2201002F0F0
:1036200087FAEB48046610BD70B5044600252CB13E
:10363000012C03D0022C01D0032C00D106E04FF462
:103640001872AFF2E811E3A002F072FADE484568A2
:1036500025F003052543456070BDDB48406800F058
:103660000C00704770B5044600257CB1802C0DD04D
:10367000902C0BD0A02C09D0B02C07D0C02C05D09A
:10368000D02C03D0E02C01D0F02C00D106E040F289
:103690008B22AFF23821D8A002F04AFACA48456816
:1036A00025F0F0052543456070BD70B50446002542
:1036B0005CB1B4F5806F08D0B4F5A06F05D0B4F557
:1036C000C06F02D0B4F5E06F00D106E04FF429726C
:1036D000AFF27821D0A002F02BFABB48456825F460
:1036E000E0652543456070BD70B5044600255CB1BA
:1036F000B4F5806F08D0B4F5A06F05D0B4F5C06FF5
:1037000002D0B4F5E06F00D106E040F2BD22AFF286
:10371000B421C1A002F00CFAAB48456825F460550D
:1037200045EAC405456070BD70B504460D46012CE0
:103730000BD0022C09D0042C07D0082C05D0102C5B
:1037400003D0202C01D0402C00D106E040F2DA2238
:10375000AFF2F821B7A002F0EBF90DB1012D00D1C5
:1037600007E040F2DB22AFF20C31AFF2702002F042
:10377000DFF935B19448806840EA042092498860B6
:1037800005E09148806820EA04208F49886070BD78
:1037900010B504462CB1012C03D0022C01D0032C0F
:1037A00000D106E040F2F522AFF25031A6A002F0BF
:1037B000BFF98748D830046060088549C1F8DC004B
:1037C00010BD70B50446002514B1B4F1005F00D1FE
:1037D00006E040F20632AFF27C31A4A002F0A8F974
:1037E0007948C56A25F000552543C56270BD70B59E
:1037F00004460025F4B3B4F1807F5BD0B4F1007FC0
:1038000058D0B4F1407F55D0B4F1806F52D0B4F1AC
:10381000A06F4FD0B4F1C06F4CD0B4F1E06F49D07D
:10382000B4F1006F46D0B4F1106F43D0B4F1206F03
:1038300040D0B4F1306F3DD0B4F1406F3AD0B4F124
:10384000506F37D0B4F1606F34D0B4F1706F31D0B5
:10385000B4F1805F2ED0B4F1885F2BD0B4F1905FCB
:1038600028D0B4F1985F25D0B4F1A05F22D0B4F194
:10387000A85F00E01EE01DD0B4F1B05F1AD0B4F133
:10388000B85F17D0B4F1C05F14D0B4F1C85F11D0E5
:10389000B4F1D05F0ED0B4F1D85F0BD0B4F1E05FDB
:1038A00008D0B4F1E85F05D0B4F1F05F02D0B4F114
:1038B000F85F00D106E040F22132AFF2604175A01E
:1038C00002F036F94048C56A25F0F8552543C5622F
:1038D00070BD70B506460C46002516B1B6F5003F22
:1038E00000D106E040F24132AFF2904173A002F005
:1038F0001FF9E4B3B4F5805F39D0B4F5005F36D07A
:10390000B4F5405F33D0B4F5804F30D0B4F5A04F5C
:103910002DD0B4F5C04F2AD0B4F5E04F27D0B4F580
:10392000004F24D0B4F5104F21D0B4F5204F1ED055
:10393000B4F5304F1BD0B4F5404F18D0B4F5504F0C
:1039400015D0B4F5604F12D0B4F5704F0FD0B4F568
:10395000803F0CD0B4F5883F09D0B4F5903F06D035
:10396000B4F5983F03D0B4F5A03F00D000E005E0E7
:10397000B4F5A83F02D0B4F5B03FB3E0CEE000000C
:103980000000380800003C0849535F5243435F5031
:103990004C4C5F4D554C285243435F504C4C4D7539
:1039A0006C29000049535F5243435F504C4C5F44C5
:1039B0004956434C4B285243435F504C4C44495664
:1039C000434C4B290000000000100240FFFFC0F7ED
:1039D0000000424249535F5243435F535953434CA3
:1039E0004B5F535243285243435F535953434C4B0D
:1039F000536F75726365290049535F5243435F53A8
:103A00005953434C4B5F444956285243435F5359E3
:103A100053434C4B2900000049535F5243435F48D6
:103A2000434C4B5F444956285243435F48434C4BF9
:103A30002900000049535F5243435F494E542852C6
:103A40006363496E7429000049535F5243435F55D5
:103A50005342434C4B5F535243285243435F5553A9
:103A600042434C4B536F75726365290049535F5253
:103A700043435F54494D3138434C4B5352432852D2
:103A800043435F54494D3138434C4B536F75726318
:103A90006529000049535F5243435F524E474343F9
:103AA0004C4B505245285243435F524E4743434C80
:103AB0004B5072657363616C6572290049535F52A4
:103AC00043435F414443314D434C4B53524328528F
:103AD00043435F414443314D434C4B536F757263D5
:103AE000652900001AD0B4F5B83F17D0B4F5C03F2F
:103AF00014D0B4F5C83F11D0B4F5D03F0ED0B4F512
:103B0000D83F0BD0B4F5E03F08D0B4F5E83F05D07E
:103B1000B4F5F03F02D0B4F5F83F00D106E040F232
:103B20004232AFF2C861F0A002F002F8F848C56A6C
:103B300025F4003525F4F83535432543C56270BDBD
:103B400070B504460E460025B4F5807F25D0B4F547
:103B5000887F22D0B4F5907F1FD0B4F5987F1CD019
:103B6000B4F5A07F19D0B4F5A87F16D0B4F5B07F16
:103B700013D0B4F5B87F10D0B4F5C07F0DD0B4F534
:103B8000C87F0AD0B4F5D07F07D0B4F5D87F04D071
:103B900004F4E070B0F5E07F00D106E04FF45B7212
:103BA000AFF24871DBA001F0C3FF0EB1012E00D1CE
:103BB00007E040F26D32AFF25C71AFF2C06001F02D
:103BC000B7FFD348C56A25F4F8750EB1254302E066
:103BD000254325F48075CE48C56270BD70B5044696
:103BE000002594B1012C10D0022C0ED0032C0CD047
:103BF000042C0AD0052C08D0062C06D0072C04D0A3
:103C0000082C02D004F0080000B106E04FF4657201
:103C1000AFF2B871CAA001F08BFFBD48C56A25F0AC
:103C20000F052543C56270BD70B506460C460025DC
:103C300016B1B6F5003F00D106E04FF46D72AFF259
:103C4000E471C9A001F074FFB4F5006F59D0B4F568
:103C5000805F56D0B4F5C05F53D0B4F5005F50D04C
:103C6000B4F5205F4DD0B4F5405F4AD0B4F5605F45
:103C700047D0B4F5804F44D0B4F5904F41D0B4F55F
:103C8000A04F3ED0B4F5B04F3BD0B4F5C04F38D0C4
:103C9000B4F5D04F35D0B4F5E04F32D0B4F5F04F95
:103CA0002FD0B4F5004F2CD0B4F5084F29D0B4F57F
:103CB000104F26D0B4F5184F23D0B4F5204F20D0A4
:103CC000B4F5284F1DD0B4F5304F1AD0B4F5384FA5
:103CD00017D0B4F5404F14D0B4F5484F11D0B4F517
:103CE000504F0ED0B4F5584F0BD0B4F5604F08D0FC
:103CF000B4F5684F05D0B4F5704F02D0B4F5784FE5
:103D000000D106E040F2B532AFF6B001A1A001F05B
:103D10000FFF7F48056B25F4003525F478453543C2
:103D20002543056370BD10B504460CB1012C00D1CC
:103D300007E040F2CE32AFF6DC01AFF6400001F012
:103D4000F7FE34B17248006B40F48020704908637C
:103D500005E06F48006B20F480206D49086310BDBA
:103D600070B504460D46002614B1B4F5007F00D1AD
:103D700006E040F2EA32AFF61C1191A001F0D8FE45
:103D80000DB1012D00D107E040F2EB32AFF6341156
:103D9000AFF6980001F0CCFE5D48066B26F4007685
:103DA000264306632DB1006B40F08000584908633C
:103DB00005E05748006B20F080005549086370BD4E
:103DC00010B5044614B1B4F5807F00D106E040F28E
:103DD0000A42AFF6781184A001F0AAFE4C48006BAD
:103DE00020F480704A4908630846006B204308634A
:103DF00010BD70B504460D4624F4707008B904B1C6
:103E000006E040F22242AFF6AC1182A001F090FE33
:103E10000DB1012D00D107E040F22342AFF6C411ED
:103E2000AFF6281001F084FE2DB13948406B2043D5
:103E30003749486304E03648406BA043344948633F
:103E400070BD70B504460D4624F4707008B904B115
:103E500006E040F23B42AFF6FC116EA001F068FEB6
:103E60000DB1012D00D107E040F23C42AFF6142124
:103E7000AFF6781001F05CFE35B12548406B40EAA2
:103E800004102349486305E02148406B20EA0410F0
:103E90001F49486370BD70B504460D466648204012
:103EA00008B904B106E040F23B62AFF6502163A0CE
:103EB00001F03EFE0DB1012D00D107E040F23C6261
:103EC000AFF66821AFF6CC1001F032FE2DB11048EC
:103ED000C06920430E49C86104E00D48C069A04391
:103EE0000B49C86170BD000049535F5243435F41B5
:103EF0004443314D434C4B505245285243435F415C
:103F00004443314D5072657363616C6572290000E2
:103F10000010024049535F5243435F414443504CB9
:103F20004C434C4B505245285243435F414443500D
:103F30004C4C434C4B5072657363616C6572290045
:103F400049535F5243435F41444348434C4B5052B3
:103F500045285243435F41444348434C4B507265AC
:103F60007363616C6572290049535F5243435F5428
:103F7000524E47314D434C4B5F53524328524343BB
:103F80005F54524E47314D434C4B536F75726365CE
:103F90002900000049535F5243435F54524E47315A
:103FA0004D434C4B505245285243435F54524E4769
:103FB000314D5072657363616C65722900000000B9
:103FC00049535F5243435F554344523330304D5F52
:103FD000535243285243435F554344523330304D8C
:103FE000536F75726365290049535F5243435F55B0
:103FF00053425854414C4553535F4D4F444528520A
:1040000043435F5553425854414C4553534D6F649D
:104010006529000049535F5243435F5245545F5046
:104020004552495048285243435F524554506572A7
:10403000697068290000000000F0194D49535F5273
:1040400043435F415042315F5045524950482852E6
:1040500043435F41504231506572697068290000E6
:1040600010B504464CB1012C07D0022C05D0032C0E
:1040700003D0042C01D0052C00D106E040F25742B9
:10408000AFF62841F3A001F053FD01210807FFF727
:1040900002FFFA48006840F48070F8490860F84868
:1040A000406B20F00700F64948630846406B204308
:1040B000486310BDF248406B00F00700704710B530
:1040C000044624F0180000B906E040F27E42AFF644
:1040D0007441ECA001F02CFDE948406B20F0180081
:1040E000E74948630846406B2043486310BDE448F5
:1040F000406B00F01800704770B504460D46012C67
:1041000001D0082C00D106E040F2A342AFF6B44142
:10411000E6A001F00DFD0DB1012D00D107E040F248
:10412000A442AFF6C841AFF62C4001F001FD2DB11D
:10413000D348406C2043D249486404E0D048406CE6
:10414000A043CF49486470BD70B504460D46022CAB
:1041500001D0102C00D106E040F2BF42AFF604516E
:10416000DBA001F0E5FC0DB1012D00D107E04FF41B
:104170009862AFF61851AFF67C4001F0D9FC2DB132
:10418000BF48406C2043BE49486404E0BC48406CD2
:10419000A043BB49486470BD10B50446042C01D04F
:1041A000202C00D106E04FF49B62AFF65051D2A014
:1041B00001F0BEFCB248406C2043B149486410BDD8
:1041C0000021D64A11686FF30801B0F5007F02DBC9
:1041D00040F2FF1001E0C0F308000143CF4A116034
:1041E00070472DE9F04105460E4600271DB1012D0F
:1041F00001D0042D00D106E040F2FB42AFF6A451FD
:10420000C7A001F095FC01210807FFF744FE9B4879
:10421000006840F48070994908609948046A24F065
:104220000D0465B1012D02D0042D18D112E044F027
:104230000104934804623046FFF7C2FF10E000BF5C
:104240008F480462002700E07F1C40F2FF70874225
:10425000FAD305E044F004048948046200E000BF9A
:1042600000BFBDE8F08110B504460CB1012C00D1AF
:1042700007E040F22452AFF61C61AFF6805001F027
:1042800057FCAC48046010BD70B5044644B1B4F5A9
:10429000807F05D0B4F5007F02D0B4F5407F00D117
:1042A00006E040F23652AFF64C61A3A001F040FCAC
:1042B0007348056A25F440752543056270BD704852
:1042C000006A00F44070704710B504460CB1012C30
:1042D00000D107E040F25752AFF68061AFF6E450EC
:1042E00001F026FC93484438046010BD10B5044624
:1042F0000CB1202C00D106E040F26652AFF6A4616A
:1043000096A001F015FC5E48006A20F020005C4990
:1043100008620846006A2043086210BD5848006AD7
:1043200000F020007047F0B5002100BF00230026F8
:1043300000240025524F7F68DFF844C207EA0C03CF
:104340004F4F7F6807F480364D4F7F6AC7F30215E1
:1043500003F000671FB9022707EB934304E04FF413
:10436000F877C7EB93477B1C66B9454F3F6C07F066
:1043700001071FB1834F03FB07F20FE0824F03FBDE
:1043800007F20BE03E4F7F6807F400371FB17F4F05
:1043900003FB07F202E07B4F03FB07F2384F3F6C51
:1043A00007F0020707B15208354F7F6807F00C018C
:1043B00031B1042909D008290AD00C290DD10AE00D
:1043C000734F57F8257007600CE06F4F076009E0E6
:1043D0006C4F076006E0026004E06D4F57F82570EF
:1043E000076000BF00BF264F7F6807F0F001090992
:1043F000684F7C5C0768E7404760214F7F6807F49F
:10440000E061090A634F7C5C4768E74087601C4FA6
:104410007F6807F46051C90A5E4F7C5C4768E740DB
:10442000C760174FFF6A07F00F015B4F7C5C47685E
:10443000B7FBF4F74761124FFF6A07F4F8710909F7
:1044400001F00F07DFF854C13CF81740B2FBF4F756
:104450000761F0BD49535F5243435F4C5054494D8F
:104460005F434C4B285243435F4C5054494D434C9F
:104470004B536F75726365290000000000700040A7
:104480000010024049535F5243435F4C5055415224
:10449000545F434C4B285243435F4C505541525458
:1044A000434C4B536F7572636529000049535F524B
:1044B00043435F5352414D4552524F52494E542847
:1044C0005372616D4572726F72496E7429000000FB
:1044D00049535F5243435F5352414D4552524F52ED
:1044E0005245534554285372616D4572726F725232
:1044F000657365742900000049535F5243435F535D
:1045000052414D4552524F52464C414728537261D9
:104510006D4572726F72666C616729000818004001
:1045200049535F5243435F4C5345285243435F4CCA
:10453000534529008004424249535F5243435F522E
:104540005443434C4B5F535243285243435F5254AE
:1045500043434C4B536F75726365290049535F5257
:1045600043435F4C5358434C4B5F53524328524391
:10457000435F4C5358434C4B536F7572636529002E
:1045800000003C0800127A000024F40000093D00FD
:10459000F8800008B8800008C8800008D8800008AB
:1045A00070B504460D4641F6552024EA000008B9CE
:1045B00004B105E040F20262D349D4A001F0B8FA98
:1045C0000DB1012D00D106E040F20362CE4901F1A8
:1045D000A00001F0ADFA2DB1D54840692043D4497F
:1045E000486104E0D2484069A043D149486170BDA8
:1045F00070B504460D46CF48204008B904B105E027
:1046000040F21D62C049CCA001F092FA0DB1012D1B
:1046100000D106E040F21E62BB4901F1A00001F0AA
:1046200087FA2DB1C24880692043C149886104E0FE
:10463000BF488069A043BE49886170BD70B504461B
:104640000D4641F6552024EA000008B904B105E002
:1046500040F25362AC49ADA001F06AFA0DB1012DF0
:1046600000D106E040F25462A74901F1A00001F038
:104670005FFA2DB1AE48806A2043AD49886204E0FC
:10468000AB48806AA043AA49886270BD70B50446F1
:104690000D46A848204008B904B105E040F26D621B
:1046A0009949A5A001F044FA0DB1012D00D106E011
:1046B00040F26E62944901F1A00001F039FA2DB187
:1046C0009B48C06820439A49C86004E09848C06885
:1046D000A0439749C86070BD70B504460D469F4819
:1046E000204008B904B106E040F28A628649AFF280
:1046F000B46001F01DFA0DB1012D00D106E040F2C9
:104700008B62814901F1A00001F012FA2DB18848B5
:10471000006920438649086104E085480069A04398
:104720008349086170BD10B504460CB1012C00D15D
:1047300006E040F29E62744901F1A00001F0F8F930
:104740008748046010BD10B504460CB1012C00D19F
:1047500006E040F2AA626C4901F1A00001F0E8F91C
:104760008048C46410BD10B504460CB1012C00D1C2
:1047700006E040F2B662644901F1A00001F0D8F908
:1047800077483438046010BD00206949096A01F097
:10479000100109B1012000E00020704770B5044607
:1047A000002564B3B4F1805F29D0B4F1005F26D056
:1047B000B4F1405F23D0B4F1804F20D0B4F1A04FCA
:1047C0001DD0B4F1C04F1AD0B4F1E04F17D0B4F1FE
:1047D000004F14D0B4F1104F11D0B4F1204F0ED0CF
:1047E000B4F1304F0BD0B4F1404F08D0B4F1504F7A
:1047F00005D0B4F1604F02D0B4F1704F00D105E0A4
:104800004FF4DD62404958A001F092F948484568EC
:1048100025F070452543456070BD70B50446002500
:104820006CB1012C0BD0022C09D0032C07D0042C26
:1048300005D0052C03D0062C01D0072C00D105E0B3
:1048400040F20772304952A001F072F938484568C9
:1048500025F0E06545EA0465456070BD3448406A6E
:1048600040F08070324948620846406A20F080700B
:104870004862704770B504460025012C0DD0022C0B
:104880000BD0042C09D0082C07D0102C05D0202CDC
:1048900003D0402C01D0802C00D105E040F274728E
:1048A000194940A001F044F921488068204008B12E
:1048B000012500E00025284670BD10B50446B4F57A
:1048C000803F14D0B4F5003F11D0B4F5802F0ED046
:1048D000B4F5002F0BD0B4F5801F08D0B4F5001F3D
:1048E00005D0B4F5004F02D0B4F5000F00D105E0BB
:1048F00040F29672044931A001F01AF90C48806820
:1049000020430B49886010BD5C34000849535F5256
:1049100043435F4148425F50455249504828524303
:10492000435F414842506572697068290000000089
:1049300000100240C287F1FF49535F5243435F4179
:104940005042325F504552495048285243435F41DC
:1049500050423250657269706829000000F0194DAC
:10496000400442420000424249535F5243435F4D7C
:10497000434F434C4B505245285243435F4D434FA6
:10498000434C4B5072657363616C65722900000083
:1049900049535F5243435F4D434F285243435F4D5A
:1049A000434F290049535F5243435F4745545F4992
:1049B0004E5428526363496E7429000049535F5274
:1049C00043435F434C525F494E544628526363430E
:1049D0006C72496E7429000010B50446F248844296
:1049E0000BD0F248844208D0F148844205D0F14807
:1049F000844202D0F048844200D104E08822EFA132
:104A0000FDA001F095F8E848844209D1012188030E
:104A1000FFF73CFE00214FF48040FFF737FE32E005
:104A2000E248844209D101214804FFF755FE0021E4
:104A30004FF40030FFF750FE25E0DD48844209D1F5
:104A400001218804FFF748FE00214FF48020FFF782
:104A500043FE18E0D748844209D101214804FFF7FA
:104A600015FE00214FF40030FFF710FE0BE0D24896
:104A7000844208D101218804FFF708FE00214FF489
:104A80008020FFF703FE10BD2DE9F04786B00546F4
:104A90000C460026B24600BF00BF0027C248854230
:104AA0000BD0C248854208D0C148854205D0C148D4
:104AB000854202D0C048854200D104E0B722BFA1A0
:104AC000CDA001F035F8206820B1D2492068884295
:104AD00000D204E0B822B9A1CFA001F029F8A08843
:104AE00018B1A088B0F5805F00D104E0B922B3A16D
:104AF000D5A001F01DF8E08858B1E088B0F5805FDE
:104B000007D0E088B0F5005F03D0E088B0F5405FE3
:104B100000D104E0BA22A9A1D8A001F009F82089A7
:104B200038B12089B0F5806F03D02089B0F5C06F0F
:104B300000D104E0BB22A1A1DCA000F0F9FF608954
:104B40004FF6F371084010B9608900B104E0BC224F
:104B50009AA1E1A000F0ECFFA08958B1A089B0F5BE
:104B6000807F07D0A089B0F5007F03D0A089B0F581
:104B7000407F00D104E0BD2290A1E14800F0D8FFC1
:104B8000A08970B18848854205D08848854202D006
:104B90008748854200D104E0C12288A1D9A000F055
:104BA000C7FF2F462E8A4CF6FF700640E08806436A
:104BB0002E82AE894EF6F3100640A0882189084364
:104BC000618908430643AE81AE8A4FF6FF40064036
:104BD000A0890643AE826846FFF7A5FB724887426C
:104BE00005D07448874202D07348874202D1DDF86D
:104BF0000CA001E0DDF808A00AEBCA0000EB0A10E7
:104C000021688900B0FBF1F86420B8FBF0F00601E0
:104C10003009642101FB1080322101EB0010642176
:104C2000B0FBF1F90120B0EB191F04D16420B8FBEF
:104C3000F0F0401C060109F00F0006432E8106B07B
:104C4000BDE8F0874FF41651016000218180C180DA
:104C500001810C21418100218181704770B5054699
:104C60000C4600265048854205D05048854202D067
:104C70004F48854200D105E040F223124FA1A1A088
:104C800000F056FF208818B12088B0F5006F00D1E1
:104C900005E04FF4927249A1A1A000F049FF60889D
:104CA00018B16088B0F5806F00D105E040F22512A0
:104CB00042A1A7A000F03CFFA08818B1A088B0F5E1
:104CC000007F00D105E04FF493723CA1ACA000F04E
:104CD0002FFFE08818B1E088B0F5807F00D105E0B3
:104CE00040F2271235A1B1A000F022FF2E8A4FF228
:104CF000FF000640208861880843A1880843E188B6
:104D0000084306432E8270BD0021018041808180CE
:104D1000C180704770B504460D46234884420BD0CD
:104D20002248844208D02248844205D02148844247
:104D300002D02148844200D105E040F251121FA167
:104D40002DA000F0F5FE0DB1012D00D105E04FF4CE
:104D5000A9721AA1A2A000F0EBFE25B1A08940F42F
:104D60000050A08104E0A0894DF6FF710840A081A9
:104D700070BD2DE9F04705460C4617464FF0000878
:104D8000C246C1460026084885420BD007488542E6
:104D900008D00748854205D00648854202D006481B
:104DA000854200D132E129E1003801400044004051
:104DB0000048004000500140005401402E2E5C6627
:104DC00069726D776172655C6E33326C3430785F16
:104DD0007374645F7065726970685F647269766528
:104DE000725C7372635C6E33326C3430785F7573EF
:104DF0006172742E6300000049535F555341525451
:104E00005F414C4C5F5045524950482855534152E0
:104E100054782900997F330049535F5553415254C8
:104E20005F42415544524154452855534152545FC5
:104E3000496E69745374727563742D3E4261756472
:104E4000526174652900000049535F555341525423
:104E50005F574F52445F4C454E4754482855534185
:104E600052545F496E69745374727563742D3E5762
:104E70006F72644C656E67746829000049535F5512
:104E8000534152545F53544F504249545328555341
:104E90004152545F496E69745374727563742D3E48
:104EA00053746F70426974732900000049535F5551
:104EB000534152545F50415249545928555341521D
:104EC000545F496E69745374727563742D3E5061FA
:104ED000726974792900000049535F555341525457
:104EE0005F4D4F44452855534152545F496E697494
:104EF0005374727563742D3E4D6F64652900000014
:104F00003082000849535F55534152545F31323368
:104F10005F50455249504828555341525478290012
:104F200049535F55534152545F434C4F434B2855AF
:104F3000534152545F436C6F636B496E6974537491
:104F4000727563742D3E436C6F636B290000000023
:104F500049535F55534152545F43504F4C2855536A
:104F60004152545F436C6F636B496E697453747242
:104F70007563742D3E506F6C6172697479290000FD
:104F800049535F55534152545F435048412855534C
:104F90004152545F436C6F636B496E697453747212
:104FA0007563742D3E5068617365290049535F55E0
:104FB000534152545F4C4153544249542855534134
:104FC00052545F436C6F636B496E697453747275AE
:104FD00063742D3E4C6173744269742900000000B3
:104FE00049535F46554E4354494F4E414C5F5354CD
:104FF00041544528436D64290000000040F27712B7
:10500000AFF24821AFF2102000F092FD282C19D009
:1050100040F22770844215D040F22660844211D0BD
:1050200040F2255084420DD040F22440844209D001
:1050300040F64600844205D040F66A10844201D012
:10504000602C00D106E04FF4BC72AFF29021FCA0BE
:1050500000F06EFD0FB1012F00D107E040F2791290
:10506000AFF2A821AFF2880000F062FD40F66A10AE
:10507000844211D1F948854205D0F948854202D0D1
:10508000F848854200D107E040F27D12AFF2D4210A
:10509000AFF2901000F04CFD2E46C4F3421804F01D
:1050A0001F0A012000FA0AF9B8F1010F01D10C36EC
:1050B00005E0B8F1020F01D1103600E0143627B137
:1050C000306840EA0900306003E0306820EA0900F7
:1050D0003060BDE8F08770B504460D461646DF48DF
:1050E00084420BD0DE48844208D0DE48844205D09A
:1050F000DD48844202D0DD48844200D107E04FF40D
:10510000D772AFF24831AFF2103000F011FD4FF618
:105110003F70284008B905B106E040F2AF12AFF287
:105120006431D3A000F004FD0EB1012E00D107E0E0
:105130004FF4D872AFF27C31AFF25C1000F0F8FCA3
:105140001EB1A08A2843A08202E0A08AA843A082C0
:1051500070BD70B504460D46C04884420BD0C048AF
:10516000844208D0BF48844205D0BF48844202D060
:10517000BE48844200D107E040F2C912AFF2C43108
:10518000AFF28C3000F0D4FC0F2D00DC06E04FF4C1
:10519000E572AFF2D831BEA000F0CAFC208A4FF60B
:1051A000F07108402082208A2843208270BD70B5AB
:1051B00004460D46A94884420BD0A948844208D031
:1051C000A848844205D0A848844202D0A748844217
:1051D00000D107E040F2DF12AFF22041AFF2E83039
:1051E00000F0A6FC15B1B5F5006F00D106E04FF454
:1051F000F072AFF23841AEA000F09AFCA0894FF2F5
:10520000FF710840A081A0892843A08170BD70B5BE
:1052100004460D46914884420BD09148844208D000
:105220009048844205D09048844202D08F488442FE
:1052300000D107E040F2F112AFF28041AFF24840F6
:1052400000F076FC0DB1012D00D107E04FF4F972AA
:10525000AFF29841AFF2782000F06AFC25B1A08946
:1052600040F00200A08104E0A0894FF6FD710840E3
:10527000A08170BD70B504460D46784884420BD0BD
:105280007748844208D07748844205D076488442E3
:1052900002D07648844200D107E040F20D22AFF2FE
:1052A000E441AFF2AC4000F043FC0DB1202D00D141
:1052B00006E040F20E22AFF2FC4186A000F038FC7E
:1052C000208A4FF6DF7108402082208A28432082FE
:1052D00070BD70B504460D46604884420BD06048EE
:1052E000844208D05F48844205D05F48844202D09F
:1052F0005E48844200D107E040F21F22AFF24451E1
:10530000AFF20C5000F014FC0DB1012D00D107E0FC
:105310004FF40872AFF25C51AFF23C3000F008FC81
:1053200025B1208A40F48040208204E0208A4BF698
:10533000FF710840208270BD70B504460D46474895
:1053400084420BD04648844208D04648844205D067
:105350004548844202D04548844200D107E04FF4DA
:105360000E72AFF2A851AFF2705000F0E1FBB5F54C
:10537000007F00DA06E040F23922AFF2C05165A0AA
:1053800000F0D6FBC5F30800A08070BD10B5044640
:10539000324884420BD03248844208D0314884429B
:1053A00005D03148844202D03048844200D107E021
:1053B00040F24922AFF2FC51AFF2C45000F0B8FB0A
:1053C000A088C0F3080010BD10B5044623488442ED
:1053D0000BD02348844208D02248844205D022487A
:1053E000844202D02148844200D107E04FF4167273
:1053F000AFF23861AFF2006000F09AFBA08940F094
:105400000100A08110BD70B504460D4613488442CA
:1054100005D01348844202D01248844200D107E0EC
:1054200040F26722AFF26C61AFF2285000F080FBCF
:10543000208BC0B22083208B40EA0520208370BDE2
:1054400049535F55534152545F4346475F494E5459
:105450002855534152545F494E54290000380140A9
:10546000004400400048004000500140005401400A
:1054700049535F55534152545F444D415245512861
:1054800055534152545F444D41526571290000000B
:1054900049535F55534152545F414444524553531D
:1054A0002855534152545F41646472290000000042
:1054B00049535F55534152545F57414B455550280E
:1054C00055534152545F57616B6555704D6F64651C
:1054D0002900000049535F55534152545F4C494ED7
:1054E0005F425245414B5F4445544543545F4C45F0
:1054F0004E4754482855534152545F4C494E4272CE
:1055000065616B4465746563744C656E6774682986
:105510000000000049535F55534152545F444154C9
:10552000412844617461290070B504460D46FE4867
:1055300084420BD0FD48844208D0FD48844205D007
:10554000FC48844202D0FC48844200D107E040F28B
:105550007A22AFF29871AFF2607000F0E9FA208B16
:1055600000F47F402083208B2843208370BD70B5DA
:1055700004460D46EC48844205D0EC48844202D0F3
:10558000EB48844200D107E04FF42372AFF2D471AC
:10559000AFF2906000F0CCFA0DB1012D00D107E020
:1055A00040F28D22AFF2EC71AFF2CC5000F0C0FAB5
:1055B00025B1A08A40F02000A08204E0A08A4FF626
:1055C000DF710840A08270BD70B504460D46D64814
:1055D000844205D0D548844202D0D548844200D1C7
:1055E00007E04FF42972AFF62C01AFF2E86000F04B
:1055F0009FFA0DB1012D00D107E040F2A522AFF6D0
:105600004401AFF2246000F093FA25B1A08A40F083
:105610001000A08204E0A08A4FF6EF710840A0823B
:1056200070BD70B504460D46BF4884420BD0BF48DC
:10563000844208D0BE48844205D0BE48844202D08D
:10564000BD48844200D107E040F2BD22AFF694018C
:10565000AFF65C0000F06CFA0DB1012D00D107E04F
:1056600040F2BE22AFF6AC01AFF28C6000F060FAFF
:1056700025B1A08A40F00800A08204E0A08A4FF67D
:10568000F7710840A08270BD70B504460D46A6486B
:1056900084420BD0A548844208D0A548844205D056
:1056A000A448844202D0A448844200D107E040F2DA
:1056B000D922AFF6F801AFF6C00000F039FA042D98
:1056C00000D005B906E040F2DA22AFF610119BA037
:1056D00000F02EFAA08A4FF6FB710840A082A08A43
:1056E0002843A08270BD70B504460D468E488442A2
:1056F0000BD08E48844208D08D48844205D08D4816
:10570000844202D08C48844200D107E040F2EB2270
:10571000AFF65811AFF6201000F00AFA0DB1012DC6
:1057200000D107E04FF43B72AFF67011AFF250704A
:1057300000F0FEF925B1A08A40F00200A08204E04A
:10574000A08A4FF6FD710840A08270BD70B5054675
:105750000C460026744885420BD07448854208D018
:105760007348854205D07348854202D0724885420D
:1057700000D107E040F21132AFF6C011AFF6881049
:1057800000F0D6F9012C13D0802C11D0402C0FD072
:10579000202C0DD0102C0BD0B4F5807F08D0B4F5A0
:1057A000007F05D0082C03D0042C01D0022C00D19E
:1057B00006E040F21232AFF6FC1169A000F0B8F931
:1057C000B4F5007F11D15848854205D0574885422D
:1057D00002D05748854200D107E040F21632AFF6BA
:1057E0002421AFF6E00000F0A3F92888204008B19A
:1057F000012600E00026304670BD70B504460D4617
:10580000494884420BD04948844208D048488442E1
:1058100005D04848844202D04748844200D107E07E
:105820004FF45072AFF66C21AFF6342000F080F9DF
:105830004FF69F40284008B905B106E040F24132DA
:10584000AFF688214DA000F073F905F40070B0F5B3
:10585000007F11D13448844205D03448844202D0BC
:105860003348844200D107E040F24532AFF6B4211C
:10587000AFF6701000F05CF9E843208070BD2DE9B0
:10588000F04705460C4600270026B046B14626489C
:1058900085420BD02548854208D02548854205D051
:1058A0002448854202D02448854200D107E040F2D6
:1058B0006332AFF6F821AFF6C02000F039F9282C9A
:1058C00020D040F2277084421CD040F226608442EF
:1058D00018D040F22550844214D040F22440844233
:1058E00010D040F6460084420CD040F66A10844244
:1058F00008D0B4F5587F05D0B4F5187F02D0B4F5C0
:10590000B07F00D106E04FF45972AFF6503123A0BA
:1059100000F00EF940F66A1084425AD102488542DE
:105920004ED00248854247E0003801400044004024
:1059300000480040005001400054014049535F5569
:10594000534152545F495244415F4D4F444528559D
:10595000534152545F497244414D6F6465290000C0
:1059600049535F55534152545F464C414728555364
:105970004152545F464C41472900000049535F554E
:10598000534152545F434C4541525F464C41472876
:1059900055534152545F464C4147290049535F5586
:1059A000534152545F4745545F494E542855534123
:1059B00052545F494E54290002D04248854200D1DA
:1059C00007E04FF45A72AFF60C41AFF6C82000F072
:1059D000AFF8C4F3421804F01F06012000FA06F6DF
:1059E000B8F1010F02D1A889064007E0B8F1020F13
:1059F00002D1288A064001E0A88A06402712012029
:105A000000FA07F7288807401EB117B14FF00109C7
:105A100001E04FF000094846BDE8F0872DE9F0416C
:105A200004460D4600260027274884420BD027480D
:105A3000844208D02348844205D02548844202D0BD
:105A40002448844200D107E040F2AB32AFF69441E3
:105A5000AFF65C4000F06CF840F2266085420BD057
:105A600040F22550854207D040F64600854203D0DB
:105A700040F66A10854200D106E04FF46B72AFF633
:105A8000C44115A000F054F840F66A10854211D1C7
:105A90000D48844205D00D48844202D00948844212
:105AA00000D107E04FF46C72AFF6F041AFF6AC30C6
:105AB00000F03EF82E120120B04087B2F84320805B
:105AC000BDE8F0810048004000380140004400403B
:105AD000005001400054014049535F555341525416
